{
  "_format": "hh-sol-artifact-1",
  "contractName": "BuyMeACoffee",
  "sourceName": "contracts/BuyMeACoffee.sol",
  "abi": [
    {
      "inputs": [],
      "stateMutability": "nonpayable",
      "type": "constructor"
    },
    {
      "anonymous": false,
      "inputs": [
        {
          "indexed": true,
          "internalType": "address",
          "name": "from",
          "type": "address"
        },
        {
          "indexed": false,
          "internalType": "uint256",
          "name": "timestamp",
          "type": "uint256"
        },
        {
          "indexed": false,
          "internalType": "string",
          "name": "name",
          "type": "string"
        },
        {
          "indexed": false,
          "internalType": "string",
          "name": "message",
          "type": "string"
        }
      ],
      "name": "NewMemo",
      "type": "event"
    },
    {
      "inputs": [],
      "name": "beneficiary",
      "outputs": [
        {
          "internalType": "address payable",
          "name": "",
          "type": "address"
        }
      ],
      "stateMutability": "view",
      "type": "function"
    },
    {
      "inputs": [
        {
          "internalType": "string",
          "name": "_name",
          "type": "string"
        },
        {
          "internalType": "string",
          "name": "_message",
          "type": "string"
        }
      ],
      "name": "buyCoffee",
      "outputs": [],
      "stateMutability": "payable",
      "type": "function"
    },
    {
      "inputs": [
        {
          "internalType": "string",
          "name": "_name",
          "type": "string"
        },
        {
          "internalType": "string",
          "name": "_message",
          "type": "string"
        }
      ],
      "name": "buyLargerCoffee",
      "outputs": [],
      "stateMutability": "payable",
      "type": "function"
    },
    {
      "inputs": [],
      "name": "getMemos",
      "outputs": [
        {
          "components": [
            {
              "internalType": "address",
              "name": "from",
              "type": "address"
            },
            {
              "internalType": "uint256",
              "name": "timestamp",
              "type": "uint256"
            },
            {
              "internalType": "string",
              "name": "name",
              "type": "string"
            },
            {
              "internalType": "string",
              "name": "message",
              "type": "string"
            }
          ],
          "internalType": "struct BuyMeACoffee.Memo[]",
          "name": "",
          "type": "tuple[]"
        }
      ],
      "stateMutability": "view",
      "type": "function"
    },
    {
      "inputs": [
        {
          "internalType": "address payable",
          "name": "_beneficiary",
          "type": "address"
        }
      ],
      "name": "setBeneficiary",
      "outputs": [],
      "stateMutability": "nonpayable",
      "type": "function"
    },
    {
      "inputs": [],
      "name": "withdrawTips",
      "outputs": [],
      "stateMutability": "nonpayable",
      "type": "function"
    }
  ],
  "bytecode": "0x608060405234801561001057600080fd5b5033600160006101000a81548173ffffffffffffffffffffffffffffffffffffffff021916908373ffffffffffffffffffffffffffffffffffffffff1602179055506110fe806100616000396000f3fe6080604052600436106100555760003560e01c80631c31f7101461005a578063204206e11461008357806338af3eed1461009f5780633aaa74b2146100ca5780637b8a304a146100e1578063865c5172146100fd575b600080fd5b34801561006657600080fd5b50610081600480360381019061007c9190610999565b610128565b005b61009d600480360381019061009891906109c2565b61026b565b005b3480156100ab57600080fd5b506100b46103f3565b6040516100c19190610c7e565b60405180910390f35b3480156100d657600080fd5b506100df610417565b005b6100fb60048036038101906100f691906109c2565b610507565b005b34801561010957600080fd5b50610112610696565b60405161011f9190610c99565b60405180910390f35b600160009054906101000a900473ffffffffffffffffffffffffffffffffffffffff1673ffffffffffffffffffffffffffffffffffffffff163373ffffffffffffffffffffffffffffffffffffffff16146101b8576040517f08c379a00000000000000000000000000000000000000000000000000000000081526004016101af90610cdb565b60405180910390fd5b600073ffffffffffffffffffffffffffffffffffffffff168173ffffffffffffffffffffffffffffffffffffffff161415610228576040517f08c379a000000000000000000000000000000000000000000000000000000000815260040161021f90610cfb565b60405180910390fd5b806000806101000a81548173ffffffffffffffffffffffffffffffffffffffff021916908373ffffffffffffffffffffffffffffffffffffffff16021790555050565b600034116102ae576040517f08c379a00000000000000000000000000000000000000000000000000000000081526004016102a590610d1b565b60405180910390fd5b600260405180608001604052803373ffffffffffffffffffffffffffffffffffffffff16815260200142815260200184815260200183815250908060018154018082558091505060019003906000526020600020906004020160009091909190915060008201518160000160006101000a81548173ffffffffffffffffffffffffffffffffffffffff021916908373ffffffffffffffffffffffffffffffffffffffff16021790555060208201518160010155604082015181600201908051906020019061037d929190610879565b50606082015181600301908051906020019061039a929190610879565b5050503373ffffffffffffffffffffffffffffffffffffffff167fc56140e05f516509ae28110e0f72e17558a7561630dad2647c3ae87d986e365c4284846040516103e793929190610d5b565b60405180910390a25050565b60008054906101000a900473ffffffffffffffffffffffffffffffffffffffff1681565b600073ffffffffffffffffffffffffffffffffffffffff1660008054906101000a900473ffffffffffffffffffffffffffffffffffffffff1673ffffffffffffffffffffffffffffffffffffffff1614156104a7576040517f08c379a000000000000000000000000000000000000000000000000000000000815260040161049e90610cbb565b60405180910390fd5b60008054906101000a900473ffffffffffffffffffffffffffffffffffffffff1673ffffffffffffffffffffffffffffffffffffffff166108fc479081150290604051600060405180830381858888f1935050505061050557600080fd5b565b660aa87bee538000341015610551576040517f08c379a000000000000000000000000000000000000000000000000000000000815260040161054890610d3b565b60405180910390fd5b600260405180608001604052803373ffffffffffffffffffffffffffffffffffffffff16815260200142815260200184815260200183815250908060018154018082558091505060019003906000526020600020906004020160009091909190915060008201518160000160006101000a81548173ffffffffffffffffffffffffffffffffffffffff021916908373ffffffffffffffffffffffffffffffffffffffff160217905550602082015181600101556040820151816002019080519060200190610620929190610879565b50606082015181600301908051906020019061063d929190610879565b5050503373ffffffffffffffffffffffffffffffffffffffff167fc56140e05f516509ae28110e0f72e17558a7561630dad2647c3ae87d986e365c42848460405161068a93929190610d5b565b60405180910390a25050565b60606002805480602002602001604051908101604052809291908181526020016000905b8282101561087057838290600052602060002090600402016040518060800160405290816000820160009054906101000a900473ffffffffffffffffffffffffffffffffffffffff1673ffffffffffffffffffffffffffffffffffffffff1673ffffffffffffffffffffffffffffffffffffffff1681526020016001820154815260200160028201805461074d90610eec565b80601f016020809104026020016040519081016040528092919081815260200182805461077990610eec565b80156107c65780601f1061079b576101008083540402835291602001916107c6565b820191906000526020600020905b8154815290600101906020018083116107a957829003601f168201915b505050505081526020016003820180546107df90610eec565b80601f016020809104026020016040519081016040528092919081815260200182805461080b90610eec565b80156108585780601f1061082d57610100808354040283529160200191610858565b820191906000526020600020905b81548152906001019060200180831161083b57829003601f168201915b505050505081525050815260200190600101906106ba565b50505050905090565b82805461088590610eec565b90600052602060002090601f0160209004810192826108a757600085556108ee565b82601f106108c057805160ff19168380011785556108ee565b828001600101855582156108ee579182015b828111156108ed5782518255916020019190600101906108d2565b5b5090506108fb91906108ff565b5090565b5b80821115610918576000816000905550600101610900565b5090565b600061092f61092a84610dc5565b610da0565b90508281526020810184848401111561094757600080fd5b610952848285610eaa565b509392505050565b600081359050610969816110b1565b92915050565b600082601f83011261098057600080fd5b813561099084826020860161091c565b91505092915050565b6000602082840312156109ab57600080fd5b60006109b98482850161095a565b91505092915050565b600080604083850312156109d557600080fd5b600083013567ffffffffffffffff8111156109ef57600080fd5b6109fb8582860161096f565b925050602083013567ffffffffffffffff811115610a1857600080fd5b610a248582860161096f565b9150509250929050565b6000610a3a8383610bf6565b905092915050565b610a4b81610e6e565b82525050565b610a5a81610e5c565b82525050565b6000610a6b82610e06565b610a758185610e29565b935083602082028501610a8785610df6565b8060005b85811015610ac35784840389528151610aa48582610a2e565b9450610aaf83610e1c565b925060208a01995050600181019050610a8b565b50829750879550505050505092915050565b6000610ae082610e11565b610aea8185610e3a565b9350610afa818560208601610eb9565b610b0381610fad565b840191505092915050565b6000610b1982610e11565b610b238185610e4b565b9350610b33818560208601610eb9565b610b3c81610fad565b840191505092915050565b6000610b54601583610e4b565b9150610b5f82610fbe565b602082019050919050565b6000610b77601e83610e4b565b9150610b8282610fe7565b602082019050919050565b6000610b9a601883610e4b565b9150610ba582611010565b602082019050919050565b6000610bbd601a83610e4b565b9150610bc882611039565b602082019050919050565b6000610be0602583610e4b565b9150610beb82611062565b604082019050919050565b6000608083016000830151610c0e6000860182610a51565b506020830151610c216020860182610c60565b5060408301518482036040860152610c398282610ad5565b91505060608301518482036060860152610c538282610ad5565b9150508091505092915050565b610c6981610ea0565b82525050565b610c7881610ea0565b82525050565b6000602082019050610c936000830184610a42565b92915050565b60006020820190508181036000830152610cb38184610a60565b905092915050565b60006020820190508181036000830152610cd481610b47565b9050919050565b60006020820190508181036000830152610cf481610b6a565b9050919050565b60006020820190508181036000830152610d1481610b8d565b9050919050565b60006020820190508181036000830152610d3481610bb0565b9050919050565b60006020820190508181036000830152610d5481610bd3565b9050919050565b6000606082019050610d706000830186610c6f565b8181036020830152610d828185610b0e565b90508181036040830152610d968184610b0e565b9050949350505050565b6000610daa610dbb565b9050610db68282610f1e565b919050565b6000604051905090565b600067ffffffffffffffff821115610de057610ddf610f7e565b5b610de982610fad565b9050602081019050919050565b6000819050602082019050919050565b600081519050919050565b600081519050919050565b6000602082019050919050565b600082825260208201905092915050565b600082825260208201905092915050565b600082825260208201905092915050565b6000610e6782610e80565b9050919050565b6000610e7982610e80565b9050919050565b600073ffffffffffffffffffffffffffffffffffffffff82169050919050565b6000819050919050565b82818337600083830152505050565b60005b83811015610ed7578082015181840152602081019050610ebc565b83811115610ee6576000848401525b50505050565b60006002820490506001821680610f0457607f821691505b60208210811415610f1857610f17610f4f565b5b50919050565b610f2782610fad565b810181811067ffffffffffffffff82111715610f4657610f45610f7e565b5b80604052505050565b7f4e487b7100000000000000000000000000000000000000000000000000000000600052602260045260246000fd5b7f4e487b7100000000000000000000000000000000000000000000000000000000600052604160045260246000fd5b6000601f19601f8301169050919050565b7f5365742042656e65666963696172792046697273740000000000000000000000600082015250565b7f4f6e6c79206f776e65722063616e207365742062656e65666963696172790000600082015250565b7f42656e65666963696172792063616e2774206265203078300000000000000000600082015250565b7f63616e27742062757920636f6666656520666f72206672656521000000000000600082015250565b7f63616e27742062757920636f6666656520666f72206c6573732074686174203060008201527f2e30303321000000000000000000000000000000000000000000000000000000602082015250565b6110ba81610e6e565b81146110c557600080fd5b5056fea26469706673582212206fed09ce35396b806c2d9abd846c5bba50c5432515a9d98328bd6bf23f8f5c7364736f6c63430008040033",
  "linkReferences": {},
  "deployedLinkReferences": {}
}